{"project/contracts/BlockRateMarket.sol":{"BlockRateMarket":{"abi":[{"inputs":[],"stateMutability":"nonpayable","type":"constructor"},{"inputs":[],"name":"NotOwner","type":"error"},{"inputs":[{"internalType":"string","name":"productId","type":"string"},{"internalType":"address","name":"caller","type":"address"}],"name":"NotSeller","type":"error"},{"inputs":[{"internalType":"string","name":"productId","type":"string"}],"name":"ProductAlreadyExists","type":"error"},{"inputs":[{"internalType":"string","name":"productId","type":"string"}],"name":"ProductNotFound","type":"error"},{"anonymous":false,"inputs":[{"indexed":true,"internalType":"string","name":"productId","type":"string"},{"indexed":true,"internalType":"address","name":"seller","type":"address"},{"indexed":false,"internalType":"uint256","name":"price","type":"uint256"},{"indexed":false,"internalType":"uint256","name":"stock","type":"uint256"}],"name":"ProductListed","type":"event"},{"anonymous":false,"inputs":[{"indexed":true,"internalType":"string","name":"productId","type":"string"},{"indexed":false,"internalType":"uint256","name":"newStock","type":"uint256"}],"name":"StockUpdated","type":"event"},{"inputs":[{"internalType":"string","name":"productId","type":"string"}],"name":"getProduct","outputs":[{"internalType":"address","name":"seller","type":"address"},{"internalType":"uint256","name":"price","type":"uint256"},{"internalType":"uint256","name":"stock","type":"uint256"},{"internalType":"uint256","name":"totalSold","type":"uint256"},{"internalType":"bool","name":"exists","type":"bool"}],"stateMutability":"view","type":"function"},{"inputs":[{"internalType":"string","name":"productId","type":"string"},{"internalType":"address","name":"addr","type":"address"}],"name":"isSeller","outputs":[{"internalType":"bool","name":"","type":"bool"}],"stateMutability":"view","type":"function"},{"inputs":[{"internalType":"string","name":"productId","type":"string"},{"internalType":"uint256","name":"price","type":"uint256"},{"internalType":"uint256","name":"stock","type":"uint256"}],"name":"listProduct","outputs":[],"stateMutability":"nonpayable","type":"function"},{"inputs":[],"name":"owner","outputs":[{"internalType":"address","name":"","type":"address"}],"stateMutability":"view","type":"function"},{"inputs":[{"internalType":"string","name":"productId","type":"string"},{"internalType":"uint256","name":"newStock","type":"uint256"}],"name":"updateStock","outputs":[],"stateMutability":"nonpayable","type":"function"}],"evm":{"bytecode":{"linkReferences":{},"object":"60a0604052348015600e575f5ffd5b503360805260805161085761002a5f395f60f501526108575ff3fe608060405234801561000f575f5ffd5b5060043610610055575f3560e01c806322fcc67c14610059578063357360d014610081578063522927081461009657806368111cce146100a95780638da5cb5b146100f0575b5f5ffd5b61006c61006736600461051f565b61012f565b60405190151581526020015b60405180910390f35b61009461008f36600461057d565b610180565b005b6100946100a43660046105c5565b610260565b6100bc6100b7366004610612565b61047a565b604080516001600160a01b03909616865260208601949094529284019190915260608301521515608082015260a001610078565b6101177f000000000000000000000000000000000000000000000000000000000000000081565b6040516001600160a01b039091168152602001610078565b5f5f5f8585604051610142929190610651565b908152604051908190036020019020600581015490915060ff168015610177575060018101546001600160a01b038481169116145b95945050505050565b5f5f8484604051610192929190610651565b908152604051908190036020019020600581015490915060ff166101d6578383604051630259e0d160e01b81526004016101cd929190610688565b60405180910390fd5b60018101546001600160a01b0316331461020957838333604051637962a98360e11b81526004016101cd939291906106a3565b600381018290556040516102209085908590610651565b604051908190038120838252907f498e7ce6ce5e45befff15637525ba2260e33d95a48ed2632fde6dcc19c4f30039060200160405180910390a250505050565b5f8484604051610271929190610651565b9081526040519081900360200190206005015460ff16156102a9578383604051633b201a4b60e01b81526004016101cd929190610688565b5f82116102ec5760405162461bcd60e51b815260206004820152601160248201527005072696365206d757374206265203e203607c1b60448201526064016101cd565b5f811161032f5760405162461bcd60e51b8152602060048201526011602482015270053746f636b206d757374206265203e203607c1b60448201526064016101cd565b6040518060c0016040528085858080601f0160208091040260200160405190810160405280939291908181526020018383808284375f92018290525093855250503360208401525060408083018690526060830185905260808301829052600160a09093019290925290516103a79087908790610651565b908152604051908190036020019020815181906103c49082610766565b5060208201516001820180546001600160a01b0319166001600160a01b039092169190911790556040808301516002830155606083015160038301556080830151600483015560a0909201516005909101805460ff19169115159190911790555133906104349086908690610651565b6040805191829003822085835260208301859052917fa644afb57c5ba4a043d7c0a60e3ac6e268c99c08af7c6e46caef56a5e5af7214910160405180910390a350505050565b5f5f5f5f5f5f5f8888604051610491929190610651565b90815260405190819003602001902060018101546002820154600383015460048401546005909401546001600160a01b039093169c919b50995091975060ff1695509350505050565b5f5f83601f8401126104ea575f5ffd5b50813567ffffffffffffffff811115610501575f5ffd5b602083019150836020828501011115610518575f5ffd5b9250929050565b5f5f5f60408486031215610531575f5ffd5b833567ffffffffffffffff811115610547575f5ffd5b610553868287016104da565b90945092505060208401356001600160a01b0381168114610572575f5ffd5b809150509250925092565b5f5f5f6040848603121561058f575f5ffd5b833567ffffffffffffffff8111156105a5575f5ffd5b6105b1868287016104da565b909790965060209590950135949350505050565b5f5f5f5f606085870312156105d8575f5ffd5b843567ffffffffffffffff8111156105ee575f5ffd5b6105fa878288016104da565b90989097506020870135966040013595509350505050565b5f5f60208385031215610623575f5ffd5b823567ffffffffffffffff811115610639575f5ffd5b610645858286016104da565b90969095509350505050565b818382375f9101908152919050565b81835281816020850137505f828201602090810191909152601f909101601f19169091010190565b602081525f61069b602083018486610660565b949350505050565b604081525f6106b6604083018587610660565b905060018060a01b0383166020830152949350505050565b634e487b7160e01b5f52604160045260245ffd5b600181811c908216806106f657607f821691505b60208210810361071457634e487b7160e01b5f52602260045260245ffd5b50919050565b601f82111561076157805f5260205f20601f840160051c8101602085101561073f5750805b601f840160051c820191505b8181101561075e575f815560010161074b565b50505b505050565b815167ffffffffffffffff811115610780576107806106ce565b6107948161078e84546106e2565b8461071a565b6020601f8211600181146107c6575f83156107af5750848201515b5f19600385901b1c1916600184901b17845561075e565b5f84815260208120601f198516915b828110156107f557878501518255602094850194600190920191016107d5565b508482101561081257868401515f19600387901b60f8161c191681555b50505050600190811b0190555056fea264697066735822122012aa759c47497b9bef10d4b87410cdd36fa88fa1bcb89dcc16c749e8eab3c35264736f6c634300081c0033","opcodes":"PUSH1 0xA0 PUSH1 0x40 MSTORE CALLVALUE DUP1 ISZERO PUSH1 0xE JUMPI PUSH0 PUSH0 REVERT JUMPDEST POP CALLER PUSH1 0x80 MSTORE PUSH1 0x80 MLOAD PUSH2 0x857 PUSH2 0x2A PUSH0 CODECOPY PUSH0 PUSH1 0xF5 ADD MSTORE PUSH2 0x857 PUSH0 RETURN INVALID PUSH1 0x80 PUSH1 0x40 MSTORE CALLVALUE DUP1 ISZERO PUSH2 0xF JUMPI PUSH0 PUSH0 REVERT JUMPDEST POP PUSH1 0x4 CALLDATASIZE LT PUSH2 0x55 JUMPI PUSH0 CALLDATALOAD PUSH1 0xE0 SHR DUP1 PUSH4 0x22FCC67C EQ PUSH2 0x59 JUMPI DUP1 PUSH4 0x357360D0 EQ PUSH2 0x81 JUMPI DUP1 PUSH4 0x52292708 EQ PUSH2 0x96 JUMPI DUP1 PUSH4 0x68111CCE EQ PUSH2 0xA9 JUMPI DUP1 PUSH4 0x8DA5CB5B EQ PUSH2 0xF0 JUMPI JUMPDEST PUSH0 PUSH0 REVERT JUMPDEST PUSH2 0x6C PUSH2 0x67 CALLDATASIZE PUSH1 0x4 PUSH2 0x51F JUMP JUMPDEST PUSH2 0x12F JUMP JUMPDEST PUSH1 0x40 MLOAD SWAP1 ISZERO ISZERO DUP2 MSTORE PUSH1 0x20 ADD JUMPDEST PUSH1 0x40 MLOAD DUP1 SWAP2 SUB SWAP1 RETURN JUMPDEST PUSH2 0x94 PUSH2 0x8F CALLDATASIZE PUSH1 0x4 PUSH2 0x57D JUMP JUMPDEST PUSH2 0x180 JUMP JUMPDEST STOP JUMPDEST PUSH2 0x94 PUSH2 0xA4 CALLDATASIZE PUSH1 0x4 PUSH2 0x5C5 JUMP JUMPDEST PUSH2 0x260 JUMP JUMPDEST PUSH2 0xBC PUSH2 0xB7 CALLDATASIZE PUSH1 0x4 PUSH2 0x612 JUMP JUMPDEST PUSH2 0x47A JUMP JUMPDEST PUSH1 0x40 DUP1 MLOAD PUSH1 0x1 PUSH1 0x1 PUSH1 0xA0 SHL SUB SWAP1 SWAP7 AND DUP7 MSTORE PUSH1 0x20 DUP7 ADD SWAP5 SWAP1 SWAP5 MSTORE SWAP3 DUP5 ADD SWAP2 SWAP1 SWAP2 MSTORE PUSH1 0x60 DUP4 ADD MSTORE ISZERO ISZERO PUSH1 0x80 DUP3 ADD MSTORE PUSH1 0xA0 ADD PUSH2 0x78 JUMP JUMPDEST PUSH2 0x117 PUSH32 0x0 DUP2 JUMP JUMPDEST PUSH1 0x40 MLOAD PUSH1 0x1 PUSH1 0x1 PUSH1 0xA0 SHL SUB SWAP1 SWAP2 AND DUP2 MSTORE PUSH1 0x20 ADD PUSH2 0x78 JUMP JUMPDEST PUSH0 PUSH0 PUSH0 DUP6 DUP6 PUSH1 0x40 MLOAD PUSH2 0x142 SWAP3 SWAP2 SWAP1 PUSH2 0x651 JUMP JUMPDEST SWAP1 DUP2 MSTORE PUSH1 0x40 MLOAD SWAP1 DUP2 SWAP1 SUB PUSH1 0x20 ADD SWAP1 KECCAK256 PUSH1 0x5 DUP2 ADD SLOAD SWAP1 SWAP2 POP PUSH1 0xFF AND DUP1 ISZERO PUSH2 0x177 JUMPI POP PUSH1 0x1 DUP2 ADD SLOAD PUSH1 0x1 PUSH1 0x1 PUSH1 0xA0 SHL SUB DUP5 DUP2 AND SWAP2 AND EQ JUMPDEST SWAP6 SWAP5 POP POP POP POP POP JUMP JUMPDEST PUSH0 PUSH0 DUP5 DUP5 PUSH1 0x40 MLOAD PUSH2 0x192 SWAP3 SWAP2 SWAP1 PUSH2 0x651 JUMP JUMPDEST SWAP1 DUP2 MSTORE PUSH1 0x40 MLOAD SWAP1 DUP2 SWAP1 SUB PUSH1 0x20 ADD SWAP1 KECCAK256 PUSH1 0x5 DUP2 ADD SLOAD SWAP1 SWAP2 POP PUSH1 0xFF AND PUSH2 0x1D6 JUMPI DUP4 DUP4 PUSH1 0x40 MLOAD PUSH4 0x259E0D1 PUSH1 0xE0 SHL DUP2 MSTORE PUSH1 0x4 ADD PUSH2 0x1CD SWAP3 SWAP2 SWAP1 PUSH2 0x688 JUMP JUMPDEST PUSH1 0x40 MLOAD DUP1 SWAP2 SUB SWAP1 REVERT JUMPDEST PUSH1 0x1 DUP2 ADD SLOAD PUSH1 0x1 PUSH1 0x1 PUSH1 0xA0 SHL SUB AND CALLER EQ PUSH2 0x209 JUMPI DUP4 DUP4 CALLER PUSH1 0x40 MLOAD PUSH4 0x7962A983 PUSH1 0xE1 SHL DUP2 MSTORE PUSH1 0x4 ADD PUSH2 0x1CD SWAP4 SWAP3 SWAP2 SWAP1 PUSH2 0x6A3 JUMP JUMPDEST PUSH1 0x3 DUP2 ADD DUP3 SWAP1 SSTORE PUSH1 0x40 MLOAD PUSH2 0x220 SWAP1 DUP6 SWAP1 DUP6 SWAP1 PUSH2 0x651 JUMP JUMPDEST PUSH1 0x40 MLOAD SWAP1 DUP2 SWAP1 SUB DUP2 KECCAK256 DUP4 DUP3 MSTORE SWAP1 PUSH32 0x498E7CE6CE5E45BEFFF15637525BA2260E33D95A48ED2632FDE6DCC19C4F3003 SWAP1 PUSH1 0x20 ADD PUSH1 0x40 MLOAD DUP1 SWAP2 SUB SWAP1 LOG2 POP POP POP POP JUMP JUMPDEST PUSH0 DUP5 DUP5 PUSH1 0x40 MLOAD PUSH2 0x271 SWAP3 SWAP2 SWAP1 PUSH2 0x651 JUMP JUMPDEST SWAP1 DUP2 MSTORE PUSH1 0x40 MLOAD SWAP1 DUP2 SWAP1 SUB PUSH1 0x20 ADD SWAP1 KECCAK256 PUSH1 0x5 ADD SLOAD PUSH1 0xFF AND ISZERO PUSH2 0x2A9 JUMPI DUP4 DUP4 PUSH1 0x40 MLOAD PUSH4 0x3B201A4B PUSH1 0xE0 SHL DUP2 MSTORE PUSH1 0x4 ADD PUSH2 0x1CD SWAP3 SWAP2 SWAP1 PUSH2 0x688 JUMP JUMPDEST PUSH0 DUP3 GT PUSH2 0x2EC JUMPI PUSH1 0x40 MLOAD PUSH3 0x461BCD PUSH1 0xE5 SHL DUP2 MSTORE PUSH1 0x20 PUSH1 0x4 DUP3 ADD MSTORE PUSH1 0x11 PUSH1 0x24 DUP3 ADD MSTORE PUSH17 0x5072696365206D757374206265203E203 PUSH1 0x7C SHL PUSH1 0x44 DUP3 ADD MSTORE PUSH1 0x64 ADD PUSH2 0x1CD JUMP JUMPDEST PUSH0 DUP2 GT PUSH2 0x32F JUMPI PUSH1 0x40 MLOAD PUSH3 0x461BCD PUSH1 0xE5 SHL DUP2 MSTORE PUSH1 0x20 PUSH1 0x4 DUP3 ADD MSTORE PUSH1 0x11 PUSH1 0x24 DUP3 ADD MSTORE PUSH17 0x53746F636B206D757374206265203E203 PUSH1 0x7C SHL PUSH1 0x44 DUP3 ADD MSTORE PUSH1 0x64 ADD PUSH2 0x1CD JUMP JUMPDEST PUSH1 0x40 MLOAD DUP1 PUSH1 0xC0 ADD PUSH1 0x40 MSTORE DUP1 DUP6 DUP6 DUP1 DUP1 PUSH1 0x1F ADD PUSH1 0x20 DUP1 SWAP2 DIV MUL PUSH1 0x20 ADD PUSH1 0x40 MLOAD SWAP1 DUP2 ADD PUSH1 0x40 MSTORE DUP1 SWAP4 SWAP3 SWAP2 SWAP1 DUP2 DUP2 MSTORE PUSH1 0x20 ADD DUP4 DUP4 DUP1 DUP3 DUP5 CALLDATACOPY PUSH0 SWAP3 ADD DUP3 SWAP1 MSTORE POP SWAP4 DUP6 MSTORE POP POP CALLER PUSH1 0x20 DUP5 ADD MSTORE POP PUSH1 0x40 DUP1 DUP4 ADD DUP7 SWAP1 MSTORE PUSH1 0x60 DUP4 ADD DUP6 SWAP1 MSTORE PUSH1 0x80 DUP4 ADD DUP3 SWAP1 MSTORE PUSH1 0x1 PUSH1 0xA0 SWAP1 SWAP4 ADD SWAP3 SWAP1 SWAP3 MSTORE SWAP1 MLOAD PUSH2 0x3A7 SWAP1 DUP8 SWAP1 DUP8 SWAP1 PUSH2 0x651 JUMP JUMPDEST SWAP1 DUP2 MSTORE PUSH1 0x40 MLOAD SWAP1 DUP2 SWAP1 SUB PUSH1 0x20 ADD SWAP1 KECCAK256 DUP2 MLOAD DUP2 SWAP1 PUSH2 0x3C4 SWAP1 DUP3 PUSH2 0x766 JUMP JUMPDEST POP PUSH1 0x20 DUP3 ADD MLOAD PUSH1 0x1 DUP3 ADD DUP1 SLOAD PUSH1 0x1 PUSH1 0x1 PUSH1 0xA0 SHL SUB NOT AND PUSH1 0x1 PUSH1 0x1 PUSH1 0xA0 SHL SUB SWAP1 SWAP3 AND SWAP2 SWAP1 SWAP2 OR SWAP1 SSTORE PUSH1 0x40 DUP1 DUP4 ADD MLOAD PUSH1 0x2 DUP4 ADD SSTORE PUSH1 0x60 DUP4 ADD MLOAD PUSH1 0x3 DUP4 ADD SSTORE PUSH1 0x80 DUP4 ADD MLOAD PUSH1 0x4 DUP4 ADD SSTORE PUSH1 0xA0 SWAP1 SWAP3 ADD MLOAD PUSH1 0x5 SWAP1 SWAP2 ADD DUP1 SLOAD PUSH1 0xFF NOT AND SWAP2 ISZERO ISZERO SWAP2 SWAP1 SWAP2 OR SWAP1 SSTORE MLOAD CALLER SWAP1 PUSH2 0x434 SWAP1 DUP7 SWAP1 DUP7 SWAP1 PUSH2 0x651 JUMP JUMPDEST PUSH1 0x40 DUP1 MLOAD SWAP2 DUP3 SWAP1 SUB DUP3 KECCAK256 DUP6 DUP4 MSTORE PUSH1 0x20 DUP4 ADD DUP6 SWAP1 MSTORE SWAP2 PUSH32 0xA644AFB57C5BA4A043D7C0A60E3AC6E268C99C08AF7C6E46CAEF56A5E5AF7214 SWAP2 ADD PUSH1 0x40 MLOAD DUP1 SWAP2 SUB SWAP1 LOG3 POP POP POP POP JUMP JUMPDEST PUSH0 PUSH0 PUSH0 PUSH0 PUSH0 PUSH0 PUSH0 DUP9 DUP9 PUSH1 0x40 MLOAD PUSH2 0x491 SWAP3 SWAP2 SWAP1 PUSH2 0x651 JUMP JUMPDEST SWAP1 DUP2 MSTORE PUSH1 0x40 MLOAD SWAP1 DUP2 SWAP1 SUB PUSH1 0x20 ADD SWAP1 KECCAK256 PUSH1 0x1 DUP2 ADD SLOAD PUSH1 0x2 DUP3 ADD SLOAD PUSH1 0x3 DUP4 ADD SLOAD PUSH1 0x4 DUP5 ADD SLOAD PUSH1 0x5 SWAP1 SWAP5 ADD SLOAD PUSH1 0x1 PUSH1 0x1 PUSH1 0xA0 SHL SUB SWAP1 SWAP4 AND SWAP13 SWAP2 SWAP12 POP SWAP10 POP SWAP2 SWAP8 POP PUSH1 0xFF AND SWAP6 POP SWAP4 POP POP POP POP JUMP JUMPDEST PUSH0 PUSH0 DUP4 PUSH1 0x1F DUP5 ADD SLT PUSH2 0x4EA JUMPI PUSH0 PUSH0 REVERT JUMPDEST POP DUP2 CALLDATALOAD PUSH8 0xFFFFFFFFFFFFFFFF DUP2 GT ISZERO PUSH2 0x501 JUMPI PUSH0 PUSH0 REVERT JUMPDEST PUSH1 0x20 DUP4 ADD SWAP2 POP DUP4 PUSH1 0x20 DUP3 DUP6 ADD ADD GT ISZERO PUSH2 0x518 JUMPI PUSH0 PUSH0 REVERT JUMPDEST SWAP3 POP SWAP3 SWAP1 POP JUMP JUMPDEST PUSH0 PUSH0 PUSH0 PUSH1 0x40 DUP5 DUP7 SUB SLT ISZERO PUSH2 0x531 JUMPI PUSH0 PUSH0 REVERT JUMPDEST DUP4 CALLDATALOAD PUSH8 0xFFFFFFFFFFFFFFFF DUP2 GT ISZERO PUSH2 0x547 JUMPI PUSH0 PUSH0 REVERT JUMPDEST PUSH2 0x553 DUP7 DUP3 DUP8 ADD PUSH2 0x4DA JUMP JUMPDEST SWAP1 SWAP5 POP SWAP3 POP POP PUSH1 0x20 DUP5 ADD CALLDATALOAD PUSH1 0x1 PUSH1 0x1 PUSH1 0xA0 SHL SUB DUP2 AND DUP2 EQ PUSH2 0x572 JUMPI PUSH0 PUSH0 REVERT JUMPDEST DUP1 SWAP2 POP POP SWAP3 POP SWAP3 POP SWAP3 JUMP JUMPDEST PUSH0 PUSH0 PUSH0 PUSH1 0x40 DUP5 DUP7 SUB SLT ISZERO PUSH2 0x58F JUMPI PUSH0 PUSH0 REVERT JUMPDEST DUP4 CALLDATALOAD PUSH8 0xFFFFFFFFFFFFFFFF DUP2 GT ISZERO PUSH2 0x5A5 JUMPI PUSH0 PUSH0 REVERT JUMPDEST PUSH2 0x5B1 DUP7 DUP3 DUP8 ADD PUSH2 0x4DA JUMP JUMPDEST SWAP1 SWAP8 SWAP1 SWAP7 POP PUSH1 0x20 SWAP6 SWAP1 SWAP6 ADD CALLDATALOAD SWAP5 SWAP4 POP POP POP POP JUMP JUMPDEST PUSH0 PUSH0 PUSH0 PUSH0 PUSH1 0x60 DUP6 DUP8 SUB SLT ISZERO PUSH2 0x5D8 JUMPI PUSH0 PUSH0 REVERT JUMPDEST DUP5 CALLDATALOAD PUSH8 0xFFFFFFFFFFFFFFFF DUP2 GT ISZERO PUSH2 0x5EE JUMPI PUSH0 PUSH0 REVERT JUMPDEST PUSH2 0x5FA DUP8 DUP3 DUP9 ADD PUSH2 0x4DA JUMP JUMPDEST SWAP1 SWAP9 SWAP1 SWAP8 POP PUSH1 0x20 DUP8 ADD CALLDATALOAD SWAP7 PUSH1 0x40 ADD CALLDATALOAD SWAP6 POP SWAP4 POP POP POP POP JUMP JUMPDEST PUSH0 PUSH0 PUSH1 0x20 DUP4 DUP6 SUB SLT ISZERO PUSH2 0x623 JUMPI PUSH0 PUSH0 REVERT JUMPDEST DUP3 CALLDATALOAD PUSH8 0xFFFFFFFFFFFFFFFF DUP2 GT ISZERO PUSH2 0x639 JUMPI PUSH0 PUSH0 REVERT JUMPDEST PUSH2 0x645 DUP6 DUP3 DUP7 ADD PUSH2 0x4DA JUMP JUMPDEST SWAP1 SWAP7 SWAP1 SWAP6 POP SWAP4 POP POP POP POP JUMP JUMPDEST DUP2 DUP4 DUP3 CALLDATACOPY PUSH0 SWAP2 ADD SWAP1 DUP2 MSTORE SWAP2 SWAP1 POP JUMP JUMPDEST DUP2 DUP4 MSTORE DUP2 DUP2 PUSH1 0x20 DUP6 ADD CALLDATACOPY POP PUSH0 DUP3 DUP3 ADD PUSH1 0x20 SWAP1 DUP2 ADD SWAP2 SWAP1 SWAP2 MSTORE PUSH1 0x1F SWAP1 SWAP2 ADD PUSH1 0x1F NOT AND SWAP1 SWAP2 ADD ADD SWAP1 JUMP JUMPDEST PUSH1 0x20 DUP2 MSTORE PUSH0 PUSH2 0x69B PUSH1 0x20 DUP4 ADD DUP5 DUP7 PUSH2 0x660 JUMP JUMPDEST SWAP5 SWAP4 POP POP POP POP JUMP JUMPDEST PUSH1 0x40 DUP2 MSTORE PUSH0 PUSH2 0x6B6 PUSH1 0x40 DUP4 ADD DUP6 DUP8 PUSH2 0x660 JUMP JUMPDEST SWAP1 POP PUSH1 0x1 DUP1 PUSH1 0xA0 SHL SUB DUP4 AND PUSH1 0x20 DUP4 ADD MSTORE SWAP5 SWAP4 POP POP POP POP JUMP JUMPDEST PUSH4 0x4E487B71 PUSH1 0xE0 SHL PUSH0 MSTORE PUSH1 0x41 PUSH1 0x4 MSTORE PUSH1 0x24 PUSH0 REVERT JUMPDEST PUSH1 0x1 DUP2 DUP2 SHR SWAP1 DUP3 AND DUP1 PUSH2 0x6F6 JUMPI PUSH1 0x7F DUP3 AND SWAP2 POP JUMPDEST PUSH1 0x20 DUP3 LT DUP2 SUB PUSH2 0x714 JUMPI PUSH4 0x4E487B71 PUSH1 0xE0 SHL PUSH0 MSTORE PUSH1 0x22 PUSH1 0x4 MSTORE PUSH1 0x24 PUSH0 REVERT JUMPDEST POP SWAP2 SWAP1 POP JUMP JUMPDEST PUSH1 0x1F DUP3 GT ISZERO PUSH2 0x761 JUMPI DUP1 PUSH0 MSTORE PUSH1 0x20 PUSH0 KECCAK256 PUSH1 0x1F DUP5 ADD PUSH1 0x5 SHR DUP2 ADD PUSH1 0x20 DUP6 LT ISZERO PUSH2 0x73F JUMPI POP DUP1 JUMPDEST PUSH1 0x1F DUP5 ADD PUSH1 0x5 SHR DUP3 ADD SWAP2 POP JUMPDEST DUP2 DUP2 LT ISZERO PUSH2 0x75E JUMPI PUSH0 DUP2 SSTORE PUSH1 0x1 ADD PUSH2 0x74B JUMP JUMPDEST POP POP JUMPDEST POP POP POP JUMP JUMPDEST DUP2 MLOAD PUSH8 0xFFFFFFFFFFFFFFFF DUP2 GT ISZERO PUSH2 0x780 JUMPI PUSH2 0x780 PUSH2 0x6CE JUMP JUMPDEST PUSH2 0x794 DUP2 PUSH2 0x78E DUP5 SLOAD PUSH2 0x6E2 JUMP JUMPDEST DUP5 PUSH2 0x71A JUMP JUMPDEST PUSH1 0x20 PUSH1 0x1F DUP3 GT PUSH1 0x1 DUP2 EQ PUSH2 0x7C6 JUMPI PUSH0 DUP4 ISZERO PUSH2 0x7AF JUMPI POP DUP5 DUP3 ADD MLOAD JUMPDEST PUSH0 NOT PUSH1 0x3 DUP6 SWAP1 SHL SHR NOT AND PUSH1 0x1 DUP5 SWAP1 SHL OR DUP5 SSTORE PUSH2 0x75E JUMP JUMPDEST PUSH0 DUP5 DUP2 MSTORE PUSH1 0x20 DUP2 KECCAK256 PUSH1 0x1F NOT DUP6 AND SWAP2 JUMPDEST DUP3 DUP2 LT ISZERO PUSH2 0x7F5 JUMPI DUP8 DUP6 ADD MLOAD DUP3 SSTORE PUSH1 0x20 SWAP5 DUP6 ADD SWAP5 PUSH1 0x1 SWAP1 SWAP3 ADD SWAP2 ADD PUSH2 0x7D5 JUMP JUMPDEST POP DUP5 DUP3 LT ISZERO PUSH2 0x812 JUMPI DUP7 DUP5 ADD MLOAD PUSH0 NOT PUSH1 0x3 DUP8 SWAP1 SHL PUSH1 0xF8 AND SHR NOT AND DUP2 SSTORE JUMPDEST POP POP POP POP PUSH1 0x1 SWAP1 DUP2 SHL ADD SWAP1 SSTORE POP JUMP INVALID LOG2 PUSH5 0x6970667358 0x22 SLT KECCAK256 SLT 0xAA PUSH22 0x9C47497B9BEF10D4B87410CDD36FA88FA1BCB89DCC16 0xC7 BLOBHASH 0xE8 0xEA 0xB3 0xC3 MSTORE PUSH5 0x736F6C6343 STOP ADDMOD SHR STOP CALLER "},"methodIdentifiers":{"getProduct(string)":"68111cce","isSeller(string,address)":"22fcc67c","listProduct(string,uint256,uint256)":"52292708","owner()":"8da5cb5b","updateStock(string,uint256)":"357360d0"}}}}}