{"project/contracts/BlockRateMarket.sol":{"BlockRateMarket":{"abi":[{"inputs":[],"stateMutability":"nonpayable","type":"constructor"},{"inputs":[{"internalType":"string","name":"productId","type":"string"},{"internalType":"address","name":"buyer","type":"address"}],"name":"AlreadyPurchased","type":"error"},{"inputs":[{"internalType":"uint256","name":"required","type":"uint256"},{"internalType":"uint256","name":"sent","type":"uint256"}],"name":"InsufficientPayment","type":"error"},{"inputs":[],"name":"NotOwner","type":"error"},{"inputs":[{"internalType":"string","name":"productId","type":"string"},{"internalType":"address","name":"caller","type":"address"}],"name":"NotSeller","type":"error"},{"inputs":[{"internalType":"string","name":"productId","type":"string"}],"name":"OutOfStock","type":"error"},{"inputs":[{"internalType":"string","name":"productId","type":"string"}],"name":"ProductAlreadyExists","type":"error"},{"inputs":[{"internalType":"string","name":"productId","type":"string"}],"name":"ProductNotFound","type":"error"},{"inputs":[],"name":"TransferFailed","type":"error"},{"anonymous":false,"inputs":[{"indexed":true,"internalType":"string","name":"productId","type":"string"},{"indexed":true,"internalType":"address","name":"seller","type":"address"},{"indexed":false,"internalType":"uint256","name":"price","type":"uint256"},{"indexed":false,"internalType":"uint256","name":"stock","type":"uint256"}],"name":"ProductListed","type":"event"},{"anonymous":false,"inputs":[{"indexed":true,"internalType":"string","name":"productId","type":"string"},{"indexed":true,"internalType":"address","name":"buyer","type":"address"},{"indexed":false,"internalType":"uint256","name":"price","type":"uint256"},{"indexed":false,"internalType":"uint256","name":"timestamp","type":"uint256"}],"name":"ProductPurchased","type":"event"},{"anonymous":false,"inputs":[{"indexed":true,"internalType":"string","name":"productId","type":"string"},{"indexed":false,"internalType":"uint256","name":"newStock","type":"uint256"}],"name":"StockUpdated","type":"event"},{"inputs":[{"internalType":"string","name":"productId","type":"string"}],"name":"buyProduct","outputs":[],"stateMutability":"payable","type":"function"},{"inputs":[{"internalType":"string","name":"productId","type":"string"},{"internalType":"address","name":"buyer","type":"address"}],"name":"canReview","outputs":[{"internalType":"bool","name":"","type":"bool"}],"stateMutability":"view","type":"function"},{"inputs":[{"internalType":"string","name":"productId","type":"string"}],"name":"getProduct","outputs":[{"internalType":"address","name":"seller","type":"address"},{"internalType":"uint256","name":"price","type":"uint256"},{"internalType":"uint256","name":"stock","type":"uint256"},{"internalType":"uint256","name":"totalSold","type":"uint256"},{"internalType":"bool","name":"exists","type":"bool"}],"stateMutability":"view","type":"function"},{"inputs":[{"internalType":"string","name":"","type":"string"},{"internalType":"address","name":"","type":"address"}],"name":"hasPurchased","outputs":[{"internalType":"bool","name":"","type":"bool"}],"stateMutability":"view","type":"function"},{"inputs":[{"internalType":"string","name":"productId","type":"string"},{"internalType":"address","name":"addr","type":"address"}],"name":"isSeller","outputs":[{"internalType":"bool","name":"","type":"bool"}],"stateMutability":"view","type":"function"},{"inputs":[{"internalType":"string","name":"productId","type":"string"},{"internalType":"uint256","name":"price","type":"uint256"},{"internalType":"uint256","name":"stock","type":"uint256"}],"name":"listProduct","outputs":[],"stateMutability":"nonpayable","type":"function"},{"inputs":[],"name":"owner","outputs":[{"internalType":"address","name":"","type":"address"}],"stateMutability":"view","type":"function"},{"inputs":[{"internalType":"string","name":"productId","type":"string"},{"internalType":"uint256","name":"newStock","type":"uint256"}],"name":"updateStock","outputs":[],"stateMutability":"nonpayable","type":"function"}],"evm":{"bytecode":{"linkReferences":{},"object":"60a0604052348015600e575f5ffd5b503373ffffffffffffffffffffffffffffffffffffffff1660808173ffffffffffffffffffffffffffffffffffffffff168152505060805161162961005b5f395f610b7901526116295ff3fe60806040526004361061007a575f3560e01c8063364e022f1161004d578063364e022f1461015a578063522927081461017657806368111cce1461019e5780638da5cb5b146101de5761007a565b80631f985cdc1461007e57806322fcc67c146100ba5780632dc6a5b8146100f6578063357360d014610132575b5f5ffd5b348015610089575f5ffd5b506100a4600480360381019061009f9190610c67565b610208565b6040516100b19190610cde565b60405180910390f35b3480156100c5575f5ffd5b506100e060048036038101906100db9190610c67565b61027a565b6040516100ed9190610cde565b60405180910390f35b348015610101575f5ffd5b5061011c60048036038101906101179190610e2f565b610312565b6040516101299190610cde565b60405180910390f35b34801561013d575f5ffd5b5061015860048036038101906101539190610ebc565b610354565b005b610174600480360381019061016f9190610f19565b6104bf565b005b348015610181575f5ffd5b5061019c60048036038101906101979190610f64565b610850565b005b3480156101a9575f5ffd5b506101c460048036038101906101bf9190610f19565b610af7565b6040516101d5959493929190610ff3565b60405180910390f35b3480156101e9575f5ffd5b506101f2610b77565b6040516101ff9190611044565b60405180910390f35b5f6001848460405161021b92919061108b565b90815260200160405180910390205f8373ffffffffffffffffffffffffffffffffffffffff1673ffffffffffffffffffffffffffffffffffffffff1681526020019081526020015f205f9054906101000a900460ff1690509392505050565b5f5f5f858560405161028d92919061108b565b90815260200160405180910390209050806005015f9054906101000a900460ff16801561030857508273ffffffffffffffffffffffffffffffffffffffff16816001015f9054906101000a900473ffffffffffffffffffffffffffffffffffffffff1673ffffffffffffffffffffffffffffffffffffffff16145b9150509392505050565b600182805160208101820180518482526020830160208501208183528095505050505050602052805f5260405f205f915091509054906101000a900460ff1681565b5f5f848460405161036692919061108b565b90815260200160405180910390209050806005015f9054906101000a900460ff166103ca5783836040517f0259e0d10000000000000000000000000000000000000000000000000000000081526004016103c19291906110df565b60405180910390fd5b806001015f9054906101000a900473ffffffffffffffffffffffffffffffffffffffff1673ffffffffffffffffffffffffffffffffffffffff163373ffffffffffffffffffffffffffffffffffffffff1614610461578383336040517ff2c5530600000000000000000000000000000000000000000000000000000000815260040161045893929190611101565b60405180910390fd5b818160030181905550838360405161047a92919061108b565b60405180910390207f498e7ce6ce5e45befff15637525ba2260e33d95a48ed2632fde6dcc19c4f3003836040516104b19190611131565b60405180910390a250505050565b5f5f83836040516104d192919061108b565b90815260200160405180910390209050806005015f9054906101000a900460ff166105355782826040517f0259e0d100000000000000000000000000000000000000000000000000000000815260040161052c9291906110df565b60405180910390fd5b8060020154341015610584578060020154346040517fb99e2ab700000000000000000000000000000000000000000000000000000000815260040161057b92919061114a565b60405180910390fd5b5f8160030154036105ce5782826040517f41ff24c80000000000000000000000000000000000000000000000000000000081526004016105c59291906110df565b60405180910390fd5b600183836040516105e092919061108b565b90815260200160405180910390205f3373ffffffffffffffffffffffffffffffffffffffff1673ffffffffffffffffffffffffffffffffffffffff1681526020019081526020015f205f9054906101000a900460ff161561067c578282336040517f8f804b7c00000000000000000000000000000000000000000000000000000000815260040161067393929190611101565b60405180910390fd5b806003015f8154809291906106909061119e565b9190505550806004015f8154809291906106a9906111c5565b919050555060018084846040516106c192919061108b565b90815260200160405180910390205f3373ffffffffffffffffffffffffffffffffffffffff1673ffffffffffffffffffffffffffffffffffffffff1681526020019081526020015f205f6101000a81548160ff0219169083151502179055505f816001015f9054906101000a900473ffffffffffffffffffffffffffffffffffffffff1673ffffffffffffffffffffffffffffffffffffffff163460405161076890611239565b5f6040518083038185875af1925050503d805f81146107a2576040519150601f19603f3d011682016040523d82523d5f602084013e6107a7565b606091505b50509050806107e2576040517f90b8ec1800000000000000000000000000000000000000000000000000000000815260040160405180910390fd5b3373ffffffffffffffffffffffffffffffffffffffff16848460405161080992919061108b565b60405180910390207f46cb9a445bdbf7226e270f694cc6028862dd31e7cc36ac973160deb5d5b4f940344260405161084292919061114a565b60405180910390a350505050565b5f848460405161086192919061108b565b90815260200160405180910390206005015f9054906101000a900460ff16156108c35783836040517f3b201a4b0000000000000000000000000000000000000000000000000000000081526004016108ba9291906110df565b60405180910390fd5b5f8211610905576040517f08c379a00000000000000000000000000000000000000000000000000000000081526004016108fc90611297565b60405180910390fd5b5f8111610947576040517f08c379a000000000000000000000000000000000000000000000000000000000815260040161093e906112ff565b60405180910390fd5b6040518060c0016040528085858080601f0160208091040260200160405190810160405280939291908181526020018383808284375f81840152601f19601f8201169050808301925050505050505081526020013373ffffffffffffffffffffffffffffffffffffffff1681526020018381526020018281526020015f8152602001600115158152505f85856040516109e192919061108b565b90815260200160405180910390205f820151815f019081610a029190611524565b506020820151816001015f6101000a81548173ffffffffffffffffffffffffffffffffffffffff021916908373ffffffffffffffffffffffffffffffffffffffff16021790555060408201518160020155606082015181600301556080820151816004015560a0820151816005015f6101000a81548160ff0219169083151502179055509050503373ffffffffffffffffffffffffffffffffffffffff168484604051610ab092919061108b565b60405180910390207fa644afb57c5ba4a043d7c0a60e3ac6e268c99c08af7c6e46caef56a5e5af72148484604051610ae992919061114a565b60405180910390a350505050565b5f5f5f5f5f5f5f8888604051610b0e92919061108b565b90815260200160405180910390209050806001015f9054906101000a900473ffffffffffffffffffffffffffffffffffffffff16816002015482600301548360040154846005015f9054906101000a900460ff1695509550955095509550509295509295909350565b7f000000000000000000000000000000000000000000000000000000000000000081565b5f604051905090565b5f5ffd5b5f5ffd5b5f5ffd5b5f5ffd5b5f5ffd5b5f5f83601f840112610bcd57610bcc610bac565b5b8235905067ffffffffffffffff811115610bea57610be9610bb0565b5b602083019150836001820283011115610c0657610c05610bb4565b5b9250929050565b5f73ffffffffffffffffffffffffffffffffffffffff82169050919050565b5f610c3682610c0d565b9050919050565b610c4681610c2c565b8114610c50575f5ffd5b50565b5f81359050610c6181610c3d565b92915050565b5f5f5f60408486031215610c7e57610c7d610ba4565b5b5f84013567ffffffffffffffff811115610c9b57610c9a610ba8565b5b610ca786828701610bb8565b93509350506020610cba86828701610c53565b9150509250925092565b5f8115159050919050565b610cd881610cc4565b82525050565b5f602082019050610cf15f830184610ccf565b92915050565b5f5ffd5b5f601f19601f8301169050919050565b7f4e487b71000000000000000000000000000000000000000000000000000000005f52604160045260245ffd5b610d4182610cfb565b810181811067ffffffffffffffff82111715610d6057610d5f610d0b565b5b80604052505050565b5f610d72610b9b565b9050610d7e8282610d38565b919050565b5f67ffffffffffffffff821115610d9d57610d9c610d0b565b5b610da682610cfb565b9050602081019050919050565b828183375f83830152505050565b5f610dd3610dce84610d83565b610d69565b905082815260208101848484011115610def57610dee610cf7565b5b610dfa848285610db3565b509392505050565b5f82601f830112610e1657610e15610bac565b5b8135610e26848260208601610dc1565b91505092915050565b5f5f60408385031215610e4557610e44610ba4565b5b5f83013567ffffffffffffffff811115610e6257610e61610ba8565b5b610e6e85828601610e02565b9250506020610e7f85828601610c53565b9150509250929050565b5f819050919050565b610e9b81610e89565b8114610ea5575f5ffd5b50565b5f81359050610eb681610e92565b92915050565b5f5f5f60408486031215610ed357610ed2610ba4565b5b5f84013567ffffffffffffffff811115610ef057610eef610ba8565b5b610efc86828701610bb8565b93509350506020610f0f86828701610ea8565b9150509250925092565b5f5f60208385031215610f2f57610f2e610ba4565b5b5f83013567ffffffffffffffff811115610f4c57610f4b610ba8565b5b610f5885828601610bb8565b92509250509250929050565b5f5f5f5f60608587031215610f7c57610f7b610ba4565b5b5f85013567ffffffffffffffff811115610f9957610f98610ba8565b5b610fa587828801610bb8565b94509450506020610fb887828801610ea8565b9250506040610fc987828801610ea8565b91505092959194509250565b610fde81610c2c565b82525050565b610fed81610e89565b82525050565b5f60a0820190506110065f830188610fd5565b6110136020830187610fe4565b6110206040830186610fe4565b61102d6060830185610fe4565b61103a6080830184610ccf565b9695505050505050565b5f6020820190506110575f830184610fd5565b92915050565b5f81905092915050565b5f611072838561105d565b935061107f838584610db3565b82840190509392505050565b5f611097828486611067565b91508190509392505050565b5f82825260208201905092915050565b5f6110be83856110a3565b93506110cb838584610db3565b6110d483610cfb565b840190509392505050565b5f6020820190508181035f8301526110f88184866110b3565b90509392505050565b5f6040820190508181035f83015261111a8185876110b3565b90506111296020830184610fd5565b949350505050565b5f6020820190506111445f830184610fe4565b92915050565b5f60408201905061115d5f830185610fe4565b61116a6020830184610fe4565b9392505050565b7f4e487b71000000000000000000000000000000000000000000000000000000005f52601160045260245ffd5b5f6111a882610e89565b91505f82036111ba576111b9611171565b5b600182039050919050565b5f6111cf82610e89565b91507fffffffffffffffffffffffffffffffffffffffffffffffffffffffffffffffff820361120157611200611171565b5b600182019050919050565b5f81905092915050565b50565b5f6112245f8361120c565b915061122f82611216565b5f82019050919050565b5f61124382611219565b9150819050919050565b7f5072696365206d757374206265203e20300000000000000000000000000000005f82015250565b5f6112816011836110a3565b915061128c8261124d565b602082019050919050565b5f6020820190508181035f8301526112ae81611275565b9050919050565b7f53746f636b206d757374206265203e20300000000000000000000000000000005f82015250565b5f6112e96011836110a3565b91506112f4826112b5565b602082019050919050565b5f6020820190508181035f830152611316816112dd565b9050919050565b5f81519050919050565b7f4e487b71000000000000000000000000000000000000000000000000000000005f52602260045260245ffd5b5f600282049050600182168061136b57607f821691505b60208210810361137e5761137d611327565b5b50919050565b5f819050815f5260205f209050919050565b5f6020601f8301049050919050565b5f82821b905092915050565b5f600883026113e07fffffffffffffffffffffffffffffffffffffffffffffffffffffffffffffffff826113a5565b6113ea86836113a5565b95508019841693508086168417925050509392505050565b5f819050919050565b5f61142561142061141b84610e89565b611402565b610e89565b9050919050565b5f819050919050565b61143e8361140b565b61145261144a8261142c565b8484546113b1565b825550505050565b5f5f905090565b61146961145a565b611474818484611435565b505050565b5b818110156114975761148c5f82611461565b60018101905061147a565b5050565b601f8211156114dc576114ad81611384565b6114b684611396565b810160208510156114c5578190505b6114d96114d185611396565b830182611479565b50505b505050565b5f82821c905092915050565b5f6114fc5f19846008026114e1565b1980831691505092915050565b5f61151483836114ed565b9150826002028217905092915050565b61152d8261131d565b67ffffffffffffffff81111561154657611545610d0b565b5b6115508254611354565b61155b82828561149b565b5f60209050601f83116001811461158c575f841561157a578287015190505b6115848582611509565b8655506115eb565b601f19841661159a86611384565b5f5b828110156115c15784890151825560018201915060208501945060208101905061159c565b868310156115de57848901516115da601f8916826114ed565b8355505b6001600288020188555050505b50505050505056fea264697066735822122037a5dc819648e3f5f3188f70aedf2d56d4dec98ef83efa530094468815e4ed9364736f6c634300081c0033","opcodes":"PUSH1 0xA0 PUSH1 0x40 MSTORE CALLVALUE DUP1 ISZERO PUSH1 0xE JUMPI PUSH0 PUSH0 REVERT JUMPDEST POP CALLER PUSH20 0xFFFFFFFFFFFFFFFFFFFFFFFFFFFFFFFFFFFFFFFF AND PUSH1 0x80 DUP2 PUSH20 0xFFFFFFFFFFFFFFFFFFFFFFFFFFFFFFFFFFFFFFFF AND DUP2 MSTORE POP POP PUSH1 0x80 MLOAD PUSH2 0x1629 PUSH2 0x5B PUSH0 CODECOPY PUSH0 PUSH2 0xB79 ADD MSTORE PUSH2 0x1629 PUSH0 RETURN INVALID PUSH1 0x80 PUSH1 0x40 MSTORE PUSH1 0x4 CALLDATASIZE LT PUSH2 0x7A JUMPI PUSH0 CALLDATALOAD PUSH1 0xE0 SHR DUP1 PUSH4 0x364E022F GT PUSH2 0x4D JUMPI DUP1 PUSH4 0x364E022F EQ PUSH2 0x15A JUMPI DUP1 PUSH4 0x52292708 EQ PUSH2 0x176 JUMPI DUP1 PUSH4 0x68111CCE EQ PUSH2 0x19E JUMPI DUP1 PUSH4 0x8DA5CB5B EQ PUSH2 0x1DE JUMPI PUSH2 0x7A JUMP JUMPDEST DUP1 PUSH4 0x1F985CDC EQ PUSH2 0x7E JUMPI DUP1 PUSH4 0x22FCC67C EQ PUSH2 0xBA JUMPI DUP1 PUSH4 0x2DC6A5B8 EQ PUSH2 0xF6 JUMPI DUP1 PUSH4 0x357360D0 EQ PUSH2 0x132 JUMPI JUMPDEST PUSH0 PUSH0 REVERT JUMPDEST CALLVALUE DUP1 ISZERO PUSH2 0x89 JUMPI PUSH0 PUSH0 REVERT JUMPDEST POP PUSH2 0xA4 PUSH1 0x4 DUP1 CALLDATASIZE SUB DUP2 ADD SWAP1 PUSH2 0x9F SWAP2 SWAP1 PUSH2 0xC67 JUMP JUMPDEST PUSH2 0x208 JUMP JUMPDEST PUSH1 0x40 MLOAD PUSH2 0xB1 SWAP2 SWAP1 PUSH2 0xCDE JUMP JUMPDEST PUSH1 0x40 MLOAD DUP1 SWAP2 SUB SWAP1 RETURN JUMPDEST CALLVALUE DUP1 ISZERO PUSH2 0xC5 JUMPI PUSH0 PUSH0 REVERT JUMPDEST POP PUSH2 0xE0 PUSH1 0x4 DUP1 CALLDATASIZE SUB DUP2 ADD SWAP1 PUSH2 0xDB SWAP2 SWAP1 PUSH2 0xC67 JUMP JUMPDEST PUSH2 0x27A JUMP JUMPDEST PUSH1 0x40 MLOAD PUSH2 0xED SWAP2 SWAP1 PUSH2 0xCDE JUMP JUMPDEST PUSH1 0x40 MLOAD DUP1 SWAP2 SUB SWAP1 RETURN JUMPDEST CALLVALUE DUP1 ISZERO PUSH2 0x101 JUMPI PUSH0 PUSH0 REVERT JUMPDEST POP PUSH2 0x11C PUSH1 0x4 DUP1 CALLDATASIZE SUB DUP2 ADD SWAP1 PUSH2 0x117 SWAP2 SWAP1 PUSH2 0xE2F JUMP JUMPDEST PUSH2 0x312 JUMP JUMPDEST PUSH1 0x40 MLOAD PUSH2 0x129 SWAP2 SWAP1 PUSH2 0xCDE JUMP JUMPDEST PUSH1 0x40 MLOAD DUP1 SWAP2 SUB SWAP1 RETURN JUMPDEST CALLVALUE DUP1 ISZERO PUSH2 0x13D JUMPI PUSH0 PUSH0 REVERT JUMPDEST POP PUSH2 0x158 PUSH1 0x4 DUP1 CALLDATASIZE SUB DUP2 ADD SWAP1 PUSH2 0x153 SWAP2 SWAP1 PUSH2 0xEBC JUMP JUMPDEST PUSH2 0x354 JUMP JUMPDEST STOP JUMPDEST PUSH2 0x174 PUSH1 0x4 DUP1 CALLDATASIZE SUB DUP2 ADD SWAP1 PUSH2 0x16F SWAP2 SWAP1 PUSH2 0xF19 JUMP JUMPDEST PUSH2 0x4BF JUMP JUMPDEST STOP JUMPDEST CALLVALUE DUP1 ISZERO PUSH2 0x181 JUMPI PUSH0 PUSH0 REVERT JUMPDEST POP PUSH2 0x19C PUSH1 0x4 DUP1 CALLDATASIZE SUB DUP2 ADD SWAP1 PUSH2 0x197 SWAP2 SWAP1 PUSH2 0xF64 JUMP JUMPDEST PUSH2 0x850 JUMP JUMPDEST STOP JUMPDEST CALLVALUE DUP1 ISZERO PUSH2 0x1A9 JUMPI PUSH0 PUSH0 REVERT JUMPDEST POP PUSH2 0x1C4 PUSH1 0x4 DUP1 CALLDATASIZE SUB DUP2 ADD SWAP1 PUSH2 0x1BF SWAP2 SWAP1 PUSH2 0xF19 JUMP JUMPDEST PUSH2 0xAF7 JUMP JUMPDEST PUSH1 0x40 MLOAD PUSH2 0x1D5 SWAP6 SWAP5 SWAP4 SWAP3 SWAP2 SWAP1 PUSH2 0xFF3 JUMP JUMPDEST PUSH1 0x40 MLOAD DUP1 SWAP2 SUB SWAP1 RETURN JUMPDEST CALLVALUE DUP1 ISZERO PUSH2 0x1E9 JUMPI PUSH0 PUSH0 REVERT JUMPDEST POP PUSH2 0x1F2 PUSH2 0xB77 JUMP JUMPDEST PUSH1 0x40 MLOAD PUSH2 0x1FF SWAP2 SWAP1 PUSH2 0x1044 JUMP JUMPDEST PUSH1 0x40 MLOAD DUP1 SWAP2 SUB SWAP1 RETURN JUMPDEST PUSH0 PUSH1 0x1 DUP5 DUP5 PUSH1 0x40 MLOAD PUSH2 0x21B SWAP3 SWAP2 SWAP1 PUSH2 0x108B JUMP JUMPDEST SWAP1 DUP2 MSTORE PUSH1 0x20 ADD PUSH1 0x40 MLOAD DUP1 SWAP2 SUB SWAP1 KECCAK256 PUSH0 DUP4 PUSH20 0xFFFFFFFFFFFFFFFFFFFFFFFFFFFFFFFFFFFFFFFF AND PUSH20 0xFFFFFFFFFFFFFFFFFFFFFFFFFFFFFFFFFFFFFFFF AND DUP2 MSTORE PUSH1 0x20 ADD SWAP1 DUP2 MSTORE PUSH1 0x20 ADD PUSH0 KECCAK256 PUSH0 SWAP1 SLOAD SWAP1 PUSH2 0x100 EXP SWAP1 DIV PUSH1 0xFF AND SWAP1 POP SWAP4 SWAP3 POP POP POP JUMP JUMPDEST PUSH0 PUSH0 PUSH0 DUP6 DUP6 PUSH1 0x40 MLOAD PUSH2 0x28D SWAP3 SWAP2 SWAP1 PUSH2 0x108B JUMP JUMPDEST SWAP1 DUP2 MSTORE PUSH1 0x20 ADD PUSH1 0x40 MLOAD DUP1 SWAP2 SUB SWAP1 KECCAK256 SWAP1 POP DUP1 PUSH1 0x5 ADD PUSH0 SWAP1 SLOAD SWAP1 PUSH2 0x100 EXP SWAP1 DIV PUSH1 0xFF AND DUP1 ISZERO PUSH2 0x308 JUMPI POP DUP3 PUSH20 0xFFFFFFFFFFFFFFFFFFFFFFFFFFFFFFFFFFFFFFFF AND DUP2 PUSH1 0x1 ADD PUSH0 SWAP1 SLOAD SWAP1 PUSH2 0x100 EXP SWAP1 DIV PUSH20 0xFFFFFFFFFFFFFFFFFFFFFFFFFFFFFFFFFFFFFFFF AND PUSH20 0xFFFFFFFFFFFFFFFFFFFFFFFFFFFFFFFFFFFFFFFF AND EQ JUMPDEST SWAP2 POP POP SWAP4 SWAP3 POP POP POP JUMP JUMPDEST PUSH1 0x1 DUP3 DUP1 MLOAD PUSH1 0x20 DUP2 ADD DUP3 ADD DUP1 MLOAD DUP5 DUP3 MSTORE PUSH1 0x20 DUP4 ADD PUSH1 0x20 DUP6 ADD KECCAK256 DUP2 DUP4 MSTORE DUP1 SWAP6 POP POP POP POP POP POP PUSH1 0x20 MSTORE DUP1 PUSH0 MSTORE PUSH1 0x40 PUSH0 KECCAK256 PUSH0 SWAP2 POP SWAP2 POP SWAP1 SLOAD SWAP1 PUSH2 0x100 EXP SWAP1 DIV PUSH1 0xFF AND DUP2 JUMP JUMPDEST PUSH0 PUSH0 DUP5 DUP5 PUSH1 0x40 MLOAD PUSH2 0x366 SWAP3 SWAP2 SWAP1 PUSH2 0x108B JUMP JUMPDEST SWAP1 DUP2 MSTORE PUSH1 0x20 ADD PUSH1 0x40 MLOAD DUP1 SWAP2 SUB SWAP1 KECCAK256 SWAP1 POP DUP1 PUSH1 0x5 ADD PUSH0 SWAP1 SLOAD SWAP1 PUSH2 0x100 EXP SWAP1 DIV PUSH1 0xFF AND PUSH2 0x3CA JUMPI DUP4 DUP4 PUSH1 0x40 MLOAD PUSH32 0x259E0D100000000000000000000000000000000000000000000000000000000 DUP2 MSTORE PUSH1 0x4 ADD PUSH2 0x3C1 SWAP3 SWAP2 SWAP1 PUSH2 0x10DF JUMP JUMPDEST PUSH1 0x40 MLOAD DUP1 SWAP2 SUB SWAP1 REVERT JUMPDEST DUP1 PUSH1 0x1 ADD PUSH0 SWAP1 SLOAD SWAP1 PUSH2 0x100 EXP SWAP1 DIV PUSH20 0xFFFFFFFFFFFFFFFFFFFFFFFFFFFFFFFFFFFFFFFF AND PUSH20 0xFFFFFFFFFFFFFFFFFFFFFFFFFFFFFFFFFFFFFFFF AND CALLER PUSH20 0xFFFFFFFFFFFFFFFFFFFFFFFFFFFFFFFFFFFFFFFF AND EQ PUSH2 0x461 JUMPI DUP4 DUP4 CALLER PUSH1 0x40 MLOAD PUSH32 0xF2C5530600000000000000000000000000000000000000000000000000000000 DUP2 MSTORE PUSH1 0x4 ADD PUSH2 0x458 SWAP4 SWAP3 SWAP2 SWAP1 PUSH2 0x1101 JUMP JUMPDEST PUSH1 0x40 MLOAD DUP1 SWAP2 SUB SWAP1 REVERT JUMPDEST DUP2 DUP2 PUSH1 0x3 ADD DUP2 SWAP1 SSTORE POP DUP4 DUP4 PUSH1 0x40 MLOAD PUSH2 0x47A SWAP3 SWAP2 SWAP1 PUSH2 0x108B JUMP JUMPDEST PUSH1 0x40 MLOAD DUP1 SWAP2 SUB SWAP1 KECCAK256 PUSH32 0x498E7CE6CE5E45BEFFF15637525BA2260E33D95A48ED2632FDE6DCC19C4F3003 DUP4 PUSH1 0x40 MLOAD PUSH2 0x4B1 SWAP2 SWAP1 PUSH2 0x1131 JUMP JUMPDEST PUSH1 0x40 MLOAD DUP1 SWAP2 SUB SWAP1 LOG2 POP POP POP POP JUMP JUMPDEST PUSH0 PUSH0 DUP4 DUP4 PUSH1 0x40 MLOAD PUSH2 0x4D1 SWAP3 SWAP2 SWAP1 PUSH2 0x108B JUMP JUMPDEST SWAP1 DUP2 MSTORE PUSH1 0x20 ADD PUSH1 0x40 MLOAD DUP1 SWAP2 SUB SWAP1 KECCAK256 SWAP1 POP DUP1 PUSH1 0x5 ADD PUSH0 SWAP1 SLOAD SWAP1 PUSH2 0x100 EXP SWAP1 DIV PUSH1 0xFF AND PUSH2 0x535 JUMPI DUP3 DUP3 PUSH1 0x40 MLOAD PUSH32 0x259E0D100000000000000000000000000000000000000000000000000000000 DUP2 MSTORE PUSH1 0x4 ADD PUSH2 0x52C SWAP3 SWAP2 SWAP1 PUSH2 0x10DF JUMP JUMPDEST PUSH1 0x40 MLOAD DUP1 SWAP2 SUB SWAP1 REVERT JUMPDEST DUP1 PUSH1 0x2 ADD SLOAD CALLVALUE LT ISZERO PUSH2 0x584 JUMPI DUP1 PUSH1 0x2 ADD SLOAD CALLVALUE PUSH1 0x40 MLOAD PUSH32 0xB99E2AB700000000000000000000000000000000000000000000000000000000 DUP2 MSTORE PUSH1 0x4 ADD PUSH2 0x57B SWAP3 SWAP2 SWAP1 PUSH2 0x114A JUMP JUMPDEST PUSH1 0x40 MLOAD DUP1 SWAP2 SUB SWAP1 REVERT JUMPDEST PUSH0 DUP2 PUSH1 0x3 ADD SLOAD SUB PUSH2 0x5CE JUMPI DUP3 DUP3 PUSH1 0x40 MLOAD PUSH32 0x41FF24C800000000000000000000000000000000000000000000000000000000 DUP2 MSTORE PUSH1 0x4 ADD PUSH2 0x5C5 SWAP3 SWAP2 SWAP1 PUSH2 0x10DF JUMP JUMPDEST PUSH1 0x40 MLOAD DUP1 SWAP2 SUB SWAP1 REVERT JUMPDEST PUSH1 0x1 DUP4 DUP4 PUSH1 0x40 MLOAD PUSH2 0x5E0 SWAP3 SWAP2 SWAP1 PUSH2 0x108B JUMP JUMPDEST SWAP1 DUP2 MSTORE PUSH1 0x20 ADD PUSH1 0x40 MLOAD DUP1 SWAP2 SUB SWAP1 KECCAK256 PUSH0 CALLER PUSH20 0xFFFFFFFFFFFFFFFFFFFFFFFFFFFFFFFFFFFFFFFF AND PUSH20 0xFFFFFFFFFFFFFFFFFFFFFFFFFFFFFFFFFFFFFFFF AND DUP2 MSTORE PUSH1 0x20 ADD SWAP1 DUP2 MSTORE PUSH1 0x20 ADD PUSH0 KECCAK256 PUSH0 SWAP1 SLOAD SWAP1 PUSH2 0x100 EXP SWAP1 DIV PUSH1 0xFF AND ISZERO PUSH2 0x67C JUMPI DUP3 DUP3 CALLER PUSH1 0x40 MLOAD PUSH32 0x8F804B7C00000000000000000000000000000000000000000000000000000000 DUP2 MSTORE PUSH1 0x4 ADD PUSH2 0x673 SWAP4 SWAP3 SWAP2 SWAP1 PUSH2 0x1101 JUMP JUMPDEST PUSH1 0x40 MLOAD DUP1 SWAP2 SUB SWAP1 REVERT JUMPDEST DUP1 PUSH1 0x3 ADD PUSH0 DUP2 SLOAD DUP1 SWAP3 SWAP2 SWAP1 PUSH2 0x690 SWAP1 PUSH2 0x119E JUMP JUMPDEST SWAP2 SWAP1 POP SSTORE POP DUP1 PUSH1 0x4 ADD PUSH0 DUP2 SLOAD DUP1 SWAP3 SWAP2 SWAP1 PUSH2 0x6A9 SWAP1 PUSH2 0x11C5 JUMP JUMPDEST SWAP2 SWAP1 POP SSTORE POP PUSH1 0x1 DUP1 DUP5 DUP5 PUSH1 0x40 MLOAD PUSH2 0x6C1 SWAP3 SWAP2 SWAP1 PUSH2 0x108B JUMP JUMPDEST SWAP1 DUP2 MSTORE PUSH1 0x20 ADD PUSH1 0x40 MLOAD DUP1 SWAP2 SUB SWAP1 KECCAK256 PUSH0 CALLER PUSH20 0xFFFFFFFFFFFFFFFFFFFFFFFFFFFFFFFFFFFFFFFF AND PUSH20 0xFFFFFFFFFFFFFFFFFFFFFFFFFFFFFFFFFFFFFFFF AND DUP2 MSTORE PUSH1 0x20 ADD SWAP1 DUP2 MSTORE PUSH1 0x20 ADD PUSH0 KECCAK256 PUSH0 PUSH2 0x100 EXP DUP2 SLOAD DUP2 PUSH1 0xFF MUL NOT AND SWAP1 DUP4 ISZERO ISZERO MUL OR SWAP1 SSTORE POP PUSH0 DUP2 PUSH1 0x1 ADD PUSH0 SWAP1 SLOAD SWAP1 PUSH2 0x100 EXP SWAP1 DIV PUSH20 0xFFFFFFFFFFFFFFFFFFFFFFFFFFFFFFFFFFFFFFFF AND PUSH20 0xFFFFFFFFFFFFFFFFFFFFFFFFFFFFFFFFFFFFFFFF AND CALLVALUE PUSH1 0x40 MLOAD PUSH2 0x768 SWAP1 PUSH2 0x1239 JUMP JUMPDEST PUSH0 PUSH1 0x40 MLOAD DUP1 DUP4 SUB DUP2 DUP6 DUP8 GAS CALL SWAP3 POP POP POP RETURNDATASIZE DUP1 PUSH0 DUP2 EQ PUSH2 0x7A2 JUMPI PUSH1 0x40 MLOAD SWAP2 POP PUSH1 0x1F NOT PUSH1 0x3F RETURNDATASIZE ADD AND DUP3 ADD PUSH1 0x40 MSTORE RETURNDATASIZE DUP3 MSTORE RETURNDATASIZE PUSH0 PUSH1 0x20 DUP5 ADD RETURNDATACOPY PUSH2 0x7A7 JUMP JUMPDEST PUSH1 0x60 SWAP2 POP JUMPDEST POP POP SWAP1 POP DUP1 PUSH2 0x7E2 JUMPI PUSH1 0x40 MLOAD PUSH32 0x90B8EC1800000000000000000000000000000000000000000000000000000000 DUP2 MSTORE PUSH1 0x4 ADD PUSH1 0x40 MLOAD DUP1 SWAP2 SUB SWAP1 REVERT JUMPDEST CALLER PUSH20 0xFFFFFFFFFFFFFFFFFFFFFFFFFFFFFFFFFFFFFFFF AND DUP5 DUP5 PUSH1 0x40 MLOAD PUSH2 0x809 SWAP3 SWAP2 SWAP1 PUSH2 0x108B JUMP JUMPDEST PUSH1 0x40 MLOAD DUP1 SWAP2 SUB SWAP1 KECCAK256 PUSH32 0x46CB9A445BDBF7226E270F694CC6028862DD31E7CC36AC973160DEB5D5B4F940 CALLVALUE TIMESTAMP PUSH1 0x40 MLOAD PUSH2 0x842 SWAP3 SWAP2 SWAP1 PUSH2 0x114A JUMP JUMPDEST PUSH1 0x40 MLOAD DUP1 SWAP2 SUB SWAP1 LOG3 POP POP POP POP JUMP JUMPDEST PUSH0 DUP5 DUP5 PUSH1 0x40 MLOAD PUSH2 0x861 SWAP3 SWAP2 SWAP1 PUSH2 0x108B JUMP JUMPDEST SWAP1 DUP2 MSTORE PUSH1 0x20 ADD PUSH1 0x40 MLOAD DUP1 SWAP2 SUB SWAP1 KECCAK256 PUSH1 0x5 ADD PUSH0 SWAP1 SLOAD SWAP1 PUSH2 0x100 EXP SWAP1 DIV PUSH1 0xFF AND ISZERO PUSH2 0x8C3 JUMPI DUP4 DUP4 PUSH1 0x40 MLOAD PUSH32 0x3B201A4B00000000000000000000000000000000000000000000000000000000 DUP2 MSTORE PUSH1 0x4 ADD PUSH2 0x8BA SWAP3 SWAP2 SWAP1 PUSH2 0x10DF JUMP JUMPDEST PUSH1 0x40 MLOAD DUP1 SWAP2 SUB SWAP1 REVERT JUMPDEST PUSH0 DUP3 GT PUSH2 0x905 JUMPI PUSH1 0x40 MLOAD PUSH32 0x8C379A000000000000000000000000000000000000000000000000000000000 DUP2 MSTORE PUSH1 0x4 ADD PUSH2 0x8FC SWAP1 PUSH2 0x1297 JUMP JUMPDEST PUSH1 0x40 MLOAD DUP1 SWAP2 SUB SWAP1 REVERT JUMPDEST PUSH0 DUP2 GT PUSH2 0x947 JUMPI PUSH1 0x40 MLOAD PUSH32 0x8C379A000000000000000000000000000000000000000000000000000000000 DUP2 MSTORE PUSH1 0x4 ADD PUSH2 0x93E SWAP1 PUSH2 0x12FF JUMP JUMPDEST PUSH1 0x40 MLOAD DUP1 SWAP2 SUB SWAP1 REVERT JUMPDEST PUSH1 0x40 MLOAD DUP1 PUSH1 0xC0 ADD PUSH1 0x40 MSTORE DUP1 DUP6 DUP6 DUP1 DUP1 PUSH1 0x1F ADD PUSH1 0x20 DUP1 SWAP2 DIV MUL PUSH1 0x20 ADD PUSH1 0x40 MLOAD SWAP1 DUP2 ADD PUSH1 0x40 MSTORE DUP1 SWAP4 SWAP3 SWAP2 SWAP1 DUP2 DUP2 MSTORE PUSH1 0x20 ADD DUP4 DUP4 DUP1 DUP3 DUP5 CALLDATACOPY PUSH0 DUP2 DUP5 ADD MSTORE PUSH1 0x1F NOT PUSH1 0x1F DUP3 ADD AND SWAP1 POP DUP1 DUP4 ADD SWAP3 POP POP POP POP POP POP POP DUP2 MSTORE PUSH1 0x20 ADD CALLER PUSH20 0xFFFFFFFFFFFFFFFFFFFFFFFFFFFFFFFFFFFFFFFF AND DUP2 MSTORE PUSH1 0x20 ADD DUP4 DUP2 MSTORE PUSH1 0x20 ADD DUP3 DUP2 MSTORE PUSH1 0x20 ADD PUSH0 DUP2 MSTORE PUSH1 0x20 ADD PUSH1 0x1 ISZERO ISZERO DUP2 MSTORE POP PUSH0 DUP6 DUP6 PUSH1 0x40 MLOAD PUSH2 0x9E1 SWAP3 SWAP2 SWAP1 PUSH2 0x108B JUMP JUMPDEST SWAP1 DUP2 MSTORE PUSH1 0x20 ADD PUSH1 0x40 MLOAD DUP1 SWAP2 SUB SWAP1 KECCAK256 PUSH0 DUP3 ADD MLOAD DUP2 PUSH0 ADD SWAP1 DUP2 PUSH2 0xA02 SWAP2 SWAP1 PUSH2 0x1524 JUMP JUMPDEST POP PUSH1 0x20 DUP3 ADD MLOAD DUP2 PUSH1 0x1 ADD PUSH0 PUSH2 0x100 EXP DUP2 SLOAD DUP2 PUSH20 0xFFFFFFFFFFFFFFFFFFFFFFFFFFFFFFFFFFFFFFFF MUL NOT AND SWAP1 DUP4 PUSH20 0xFFFFFFFFFFFFFFFFFFFFFFFFFFFFFFFFFFFFFFFF AND MUL OR SWAP1 SSTORE POP PUSH1 0x40 DUP3 ADD MLOAD DUP2 PUSH1 0x2 ADD SSTORE PUSH1 0x60 DUP3 ADD MLOAD DUP2 PUSH1 0x3 ADD SSTORE PUSH1 0x80 DUP3 ADD MLOAD DUP2 PUSH1 0x4 ADD SSTORE PUSH1 0xA0 DUP3 ADD MLOAD DUP2 PUSH1 0x5 ADD PUSH0 PUSH2 0x100 EXP DUP2 SLOAD DUP2 PUSH1 0xFF MUL NOT AND SWAP1 DUP4 ISZERO ISZERO MUL OR SWAP1 SSTORE POP SWAP1 POP POP CALLER PUSH20 0xFFFFFFFFFFFFFFFFFFFFFFFFFFFFFFFFFFFFFFFF AND DUP5 DUP5 PUSH1 0x40 MLOAD PUSH2 0xAB0 SWAP3 SWAP2 SWAP1 PUSH2 0x108B JUMP JUMPDEST PUSH1 0x40 MLOAD DUP1 SWAP2 SUB SWAP1 KECCAK256 PUSH32 0xA644AFB57C5BA4A043D7C0A60E3AC6E268C99C08AF7C6E46CAEF56A5E5AF7214 DUP5 DUP5 PUSH1 0x40 MLOAD PUSH2 0xAE9 SWAP3 SWAP2 SWAP1 PUSH2 0x114A JUMP JUMPDEST PUSH1 0x40 MLOAD DUP1 SWAP2 SUB SWAP1 LOG3 POP POP POP POP JUMP JUMPDEST PUSH0 PUSH0 PUSH0 PUSH0 PUSH0 PUSH0 PUSH0 DUP9 DUP9 PUSH1 0x40 MLOAD PUSH2 0xB0E SWAP3 SWAP2 SWAP1 PUSH2 0x108B JUMP JUMPDEST SWAP1 DUP2 MSTORE PUSH1 0x20 ADD PUSH1 0x40 MLOAD DUP1 SWAP2 SUB SWAP1 KECCAK256 SWAP1 POP DUP1 PUSH1 0x1 ADD PUSH0 SWAP1 SLOAD SWAP1 PUSH2 0x100 EXP SWAP1 DIV PUSH20 0xFFFFFFFFFFFFFFFFFFFFFFFFFFFFFFFFFFFFFFFF AND DUP2 PUSH1 0x2 ADD SLOAD DUP3 PUSH1 0x3 ADD SLOAD DUP4 PUSH1 0x4 ADD SLOAD DUP5 PUSH1 0x5 ADD PUSH0 SWAP1 SLOAD SWAP1 PUSH2 0x100 EXP SWAP1 DIV PUSH1 0xFF AND SWAP6 POP SWAP6 POP SWAP6 POP SWAP6 POP SWAP6 POP POP SWAP3 SWAP6 POP SWAP3 SWAP6 SWAP1 SWAP4 POP JUMP JUMPDEST PUSH32 0x0 DUP2 JUMP JUMPDEST PUSH0 PUSH1 0x40 MLOAD SWAP1 POP SWAP1 JUMP JUMPDEST PUSH0 PUSH0 REVERT JUMPDEST PUSH0 PUSH0 REVERT JUMPDEST PUSH0 PUSH0 REVERT JUMPDEST PUSH0 PUSH0 REVERT JUMPDEST PUSH0 PUSH0 REVERT JUMPDEST PUSH0 PUSH0 DUP4 PUSH1 0x1F DUP5 ADD SLT PUSH2 0xBCD JUMPI PUSH2 0xBCC PUSH2 0xBAC JUMP JUMPDEST JUMPDEST DUP3 CALLDATALOAD SWAP1 POP PUSH8 0xFFFFFFFFFFFFFFFF DUP2 GT ISZERO PUSH2 0xBEA JUMPI PUSH2 0xBE9 PUSH2 0xBB0 JUMP JUMPDEST JUMPDEST PUSH1 0x20 DUP4 ADD SWAP2 POP DUP4 PUSH1 0x1 DUP3 MUL DUP4 ADD GT ISZERO PUSH2 0xC06 JUMPI PUSH2 0xC05 PUSH2 0xBB4 JUMP JUMPDEST JUMPDEST SWAP3 POP SWAP3 SWAP1 POP JUMP JUMPDEST PUSH0 PUSH20 0xFFFFFFFFFFFFFFFFFFFFFFFFFFFFFFFFFFFFFFFF DUP3 AND SWAP1 POP SWAP2 SWAP1 POP JUMP JUMPDEST PUSH0 PUSH2 0xC36 DUP3 PUSH2 0xC0D JUMP JUMPDEST SWAP1 POP SWAP2 SWAP1 POP JUMP JUMPDEST PUSH2 0xC46 DUP2 PUSH2 0xC2C JUMP JUMPDEST DUP2 EQ PUSH2 0xC50 JUMPI PUSH0 PUSH0 REVERT JUMPDEST POP JUMP JUMPDEST PUSH0 DUP2 CALLDATALOAD SWAP1 POP PUSH2 0xC61 DUP2 PUSH2 0xC3D JUMP JUMPDEST SWAP3 SWAP2 POP POP JUMP JUMPDEST PUSH0 PUSH0 PUSH0 PUSH1 0x40 DUP5 DUP7 SUB SLT ISZERO PUSH2 0xC7E JUMPI PUSH2 0xC7D PUSH2 0xBA4 JUMP JUMPDEST JUMPDEST PUSH0 DUP5 ADD CALLDATALOAD PUSH8 0xFFFFFFFFFFFFFFFF DUP2 GT ISZERO PUSH2 0xC9B JUMPI PUSH2 0xC9A PUSH2 0xBA8 JUMP JUMPDEST JUMPDEST PUSH2 0xCA7 DUP7 DUP3 DUP8 ADD PUSH2 0xBB8 JUMP JUMPDEST SWAP4 POP SWAP4 POP POP PUSH1 0x20 PUSH2 0xCBA DUP7 DUP3 DUP8 ADD PUSH2 0xC53 JUMP JUMPDEST SWAP2 POP POP SWAP3 POP SWAP3 POP SWAP3 JUMP JUMPDEST PUSH0 DUP2 ISZERO ISZERO SWAP1 POP SWAP2 SWAP1 POP JUMP JUMPDEST PUSH2 0xCD8 DUP2 PUSH2 0xCC4 JUMP JUMPDEST DUP3 MSTORE POP POP JUMP JUMPDEST PUSH0 PUSH1 0x20 DUP3 ADD SWAP1 POP PUSH2 0xCF1 PUSH0 DUP4 ADD DUP5 PUSH2 0xCCF JUMP JUMPDEST SWAP3 SWAP2 POP POP JUMP JUMPDEST PUSH0 PUSH0 REVERT JUMPDEST PUSH0 PUSH1 0x1F NOT PUSH1 0x1F DUP4 ADD AND SWAP1 POP SWAP2 SWAP1 POP JUMP JUMPDEST PUSH32 0x4E487B7100000000000000000000000000000000000000000000000000000000 PUSH0 MSTORE PUSH1 0x41 PUSH1 0x4 MSTORE PUSH1 0x24 PUSH0 REVERT JUMPDEST PUSH2 0xD41 DUP3 PUSH2 0xCFB JUMP JUMPDEST DUP2 ADD DUP2 DUP2 LT PUSH8 0xFFFFFFFFFFFFFFFF DUP3 GT OR ISZERO PUSH2 0xD60 JUMPI PUSH2 0xD5F PUSH2 0xD0B JUMP JUMPDEST JUMPDEST DUP1 PUSH1 0x40 MSTORE POP POP POP JUMP JUMPDEST PUSH0 PUSH2 0xD72 PUSH2 0xB9B JUMP JUMPDEST SWAP1 POP PUSH2 0xD7E DUP3 DUP3 PUSH2 0xD38 JUMP JUMPDEST SWAP2 SWAP1 POP JUMP JUMPDEST PUSH0 PUSH8 0xFFFFFFFFFFFFFFFF DUP3 GT ISZERO PUSH2 0xD9D JUMPI PUSH2 0xD9C PUSH2 0xD0B JUMP JUMPDEST JUMPDEST PUSH2 0xDA6 DUP3 PUSH2 0xCFB JUMP JUMPDEST SWAP1 POP PUSH1 0x20 DUP2 ADD SWAP1 POP SWAP2 SWAP1 POP JUMP JUMPDEST DUP3 DUP2 DUP4 CALLDATACOPY PUSH0 DUP4 DUP4 ADD MSTORE POP POP POP JUMP JUMPDEST PUSH0 PUSH2 0xDD3 PUSH2 0xDCE DUP5 PUSH2 0xD83 JUMP JUMPDEST PUSH2 0xD69 JUMP JUMPDEST SWAP1 POP DUP3 DUP2 MSTORE PUSH1 0x20 DUP2 ADD DUP5 DUP5 DUP5 ADD GT ISZERO PUSH2 0xDEF JUMPI PUSH2 0xDEE PUSH2 0xCF7 JUMP JUMPDEST JUMPDEST PUSH2 0xDFA DUP5 DUP3 DUP6 PUSH2 0xDB3 JUMP JUMPDEST POP SWAP4 SWAP3 POP POP POP JUMP JUMPDEST PUSH0 DUP3 PUSH1 0x1F DUP4 ADD SLT PUSH2 0xE16 JUMPI PUSH2 0xE15 PUSH2 0xBAC JUMP JUMPDEST JUMPDEST DUP2 CALLDATALOAD PUSH2 0xE26 DUP5 DUP3 PUSH1 0x20 DUP7 ADD PUSH2 0xDC1 JUMP JUMPDEST SWAP2 POP POP SWAP3 SWAP2 POP POP JUMP JUMPDEST PUSH0 PUSH0 PUSH1 0x40 DUP4 DUP6 SUB SLT ISZERO PUSH2 0xE45 JUMPI PUSH2 0xE44 PUSH2 0xBA4 JUMP JUMPDEST JUMPDEST PUSH0 DUP4 ADD CALLDATALOAD PUSH8 0xFFFFFFFFFFFFFFFF DUP2 GT ISZERO PUSH2 0xE62 JUMPI PUSH2 0xE61 PUSH2 0xBA8 JUMP JUMPDEST JUMPDEST PUSH2 0xE6E DUP6 DUP3 DUP7 ADD PUSH2 0xE02 JUMP JUMPDEST SWAP3 POP POP PUSH1 0x20 PUSH2 0xE7F DUP6 DUP3 DUP7 ADD PUSH2 0xC53 JUMP JUMPDEST SWAP2 POP POP SWAP3 POP SWAP3 SWAP1 POP JUMP JUMPDEST PUSH0 DUP2 SWAP1 POP SWAP2 SWAP1 POP JUMP JUMPDEST PUSH2 0xE9B DUP2 PUSH2 0xE89 JUMP JUMPDEST DUP2 EQ PUSH2 0xEA5 JUMPI PUSH0 PUSH0 REVERT JUMPDEST POP JUMP JUMPDEST PUSH0 DUP2 CALLDATALOAD SWAP1 POP PUSH2 0xEB6 DUP2 PUSH2 0xE92 JUMP JUMPDEST SWAP3 SWAP2 POP POP JUMP JUMPDEST PUSH0 PUSH0 PUSH0 PUSH1 0x40 DUP5 DUP7 SUB SLT ISZERO PUSH2 0xED3 JUMPI PUSH2 0xED2 PUSH2 0xBA4 JUMP JUMPDEST JUMPDEST PUSH0 DUP5 ADD CALLDATALOAD PUSH8 0xFFFFFFFFFFFFFFFF DUP2 GT ISZERO PUSH2 0xEF0 JUMPI PUSH2 0xEEF PUSH2 0xBA8 JUMP JUMPDEST JUMPDEST PUSH2 0xEFC DUP7 DUP3 DUP8 ADD PUSH2 0xBB8 JUMP JUMPDEST SWAP4 POP SWAP4 POP POP PUSH1 0x20 PUSH2 0xF0F DUP7 DUP3 DUP8 ADD PUSH2 0xEA8 JUMP JUMPDEST SWAP2 POP POP SWAP3 POP SWAP3 POP SWAP3 JUMP JUMPDEST PUSH0 PUSH0 PUSH1 0x20 DUP4 DUP6 SUB SLT ISZERO PUSH2 0xF2F JUMPI PUSH2 0xF2E PUSH2 0xBA4 JUMP JUMPDEST JUMPDEST PUSH0 DUP4 ADD CALLDATALOAD PUSH8 0xFFFFFFFFFFFFFFFF DUP2 GT ISZERO PUSH2 0xF4C JUMPI PUSH2 0xF4B PUSH2 0xBA8 JUMP JUMPDEST JUMPDEST PUSH2 0xF58 DUP6 DUP3 DUP7 ADD PUSH2 0xBB8 JUMP JUMPDEST SWAP3 POP SWAP3 POP POP SWAP3 POP SWAP3 SWAP1 POP JUMP JUMPDEST PUSH0 PUSH0 PUSH0 PUSH0 PUSH1 0x60 DUP6 DUP8 SUB SLT ISZERO PUSH2 0xF7C JUMPI PUSH2 0xF7B PUSH2 0xBA4 JUMP JUMPDEST JUMPDEST PUSH0 DUP6 ADD CALLDATALOAD PUSH8 0xFFFFFFFFFFFFFFFF DUP2 GT ISZERO PUSH2 0xF99 JUMPI PUSH2 0xF98 PUSH2 0xBA8 JUMP JUMPDEST JUMPDEST PUSH2 0xFA5 DUP8 DUP3 DUP9 ADD PUSH2 0xBB8 JUMP JUMPDEST SWAP5 POP SWAP5 POP POP PUSH1 0x20 PUSH2 0xFB8 DUP8 DUP3 DUP9 ADD PUSH2 0xEA8 JUMP JUMPDEST SWAP3 POP POP PUSH1 0x40 PUSH2 0xFC9 DUP8 DUP3 DUP9 ADD PUSH2 0xEA8 JUMP JUMPDEST SWAP2 POP POP SWAP3 SWAP6 SWAP2 SWAP5 POP SWAP3 POP JUMP JUMPDEST PUSH2 0xFDE DUP2 PUSH2 0xC2C JUMP JUMPDEST DUP3 MSTORE POP POP JUMP JUMPDEST PUSH2 0xFED DUP2 PUSH2 0xE89 JUMP JUMPDEST DUP3 MSTORE POP POP JUMP JUMPDEST PUSH0 PUSH1 0xA0 DUP3 ADD SWAP1 POP PUSH2 0x1006 PUSH0 DUP4 ADD DUP9 PUSH2 0xFD5 JUMP JUMPDEST PUSH2 0x1013 PUSH1 0x20 DUP4 ADD DUP8 PUSH2 0xFE4 JUMP JUMPDEST PUSH2 0x1020 PUSH1 0x40 DUP4 ADD DUP7 PUSH2 0xFE4 JUMP JUMPDEST PUSH2 0x102D PUSH1 0x60 DUP4 ADD DUP6 PUSH2 0xFE4 JUMP JUMPDEST PUSH2 0x103A PUSH1 0x80 DUP4 ADD DUP5 PUSH2 0xCCF JUMP JUMPDEST SWAP7 SWAP6 POP POP POP POP POP POP JUMP JUMPDEST PUSH0 PUSH1 0x20 DUP3 ADD SWAP1 POP PUSH2 0x1057 PUSH0 DUP4 ADD DUP5 PUSH2 0xFD5 JUMP JUMPDEST SWAP3 SWAP2 POP POP JUMP JUMPDEST PUSH0 DUP2 SWAP1 POP SWAP3 SWAP2 POP POP JUMP JUMPDEST PUSH0 PUSH2 0x1072 DUP4 DUP6 PUSH2 0x105D JUMP JUMPDEST SWAP4 POP PUSH2 0x107F DUP4 DUP6 DUP5 PUSH2 0xDB3 JUMP JUMPDEST DUP3 DUP5 ADD SWAP1 POP SWAP4 SWAP3 POP POP POP JUMP JUMPDEST PUSH0 PUSH2 0x1097 DUP3 DUP5 DUP7 PUSH2 0x1067 JUMP JUMPDEST SWAP2 POP DUP2 SWAP1 POP SWAP4 SWAP3 POP POP POP JUMP JUMPDEST PUSH0 DUP3 DUP3 MSTORE PUSH1 0x20 DUP3 ADD SWAP1 POP SWAP3 SWAP2 POP POP JUMP JUMPDEST PUSH0 PUSH2 0x10BE DUP4 DUP6 PUSH2 0x10A3 JUMP JUMPDEST SWAP4 POP PUSH2 0x10CB DUP4 DUP6 DUP5 PUSH2 0xDB3 JUMP JUMPDEST PUSH2 0x10D4 DUP4 PUSH2 0xCFB JUMP JUMPDEST DUP5 ADD SWAP1 POP SWAP4 SWAP3 POP POP POP JUMP JUMPDEST PUSH0 PUSH1 0x20 DUP3 ADD SWAP1 POP DUP2 DUP2 SUB PUSH0 DUP4 ADD MSTORE PUSH2 0x10F8 DUP2 DUP5 DUP7 PUSH2 0x10B3 JUMP JUMPDEST SWAP1 POP SWAP4 SWAP3 POP POP POP JUMP JUMPDEST PUSH0 PUSH1 0x40 DUP3 ADD SWAP1 POP DUP2 DUP2 SUB PUSH0 DUP4 ADD MSTORE PUSH2 0x111A DUP2 DUP6 DUP8 PUSH2 0x10B3 JUMP JUMPDEST SWAP1 POP PUSH2 0x1129 PUSH1 0x20 DUP4 ADD DUP5 PUSH2 0xFD5 JUMP JUMPDEST SWAP5 SWAP4 POP POP POP POP JUMP JUMPDEST PUSH0 PUSH1 0x20 DUP3 ADD SWAP1 POP PUSH2 0x1144 PUSH0 DUP4 ADD DUP5 PUSH2 0xFE4 JUMP JUMPDEST SWAP3 SWAP2 POP POP JUMP JUMPDEST PUSH0 PUSH1 0x40 DUP3 ADD SWAP1 POP PUSH2 0x115D PUSH0 DUP4 ADD DUP6 PUSH2 0xFE4 JUMP JUMPDEST PUSH2 0x116A PUSH1 0x20 DUP4 ADD DUP5 PUSH2 0xFE4 JUMP JUMPDEST SWAP4 SWAP3 POP POP POP JUMP JUMPDEST PUSH32 0x4E487B7100000000000000000000000000000000000000000000000000000000 PUSH0 MSTORE PUSH1 0x11 PUSH1 0x4 MSTORE PUSH1 0x24 PUSH0 REVERT JUMPDEST PUSH0 PUSH2 0x11A8 DUP3 PUSH2 0xE89 JUMP JUMPDEST SWAP2 POP PUSH0 DUP3 SUB PUSH2 0x11BA JUMPI PUSH2 0x11B9 PUSH2 0x1171 JUMP JUMPDEST JUMPDEST PUSH1 0x1 DUP3 SUB SWAP1 POP SWAP2 SWAP1 POP JUMP JUMPDEST PUSH0 PUSH2 0x11CF DUP3 PUSH2 0xE89 JUMP JUMPDEST SWAP2 POP PUSH32 0xFFFFFFFFFFFFFFFFFFFFFFFFFFFFFFFFFFFFFFFFFFFFFFFFFFFFFFFFFFFFFFFF DUP3 SUB PUSH2 0x1201 JUMPI PUSH2 0x1200 PUSH2 0x1171 JUMP JUMPDEST JUMPDEST PUSH1 0x1 DUP3 ADD SWAP1 POP SWAP2 SWAP1 POP JUMP JUMPDEST PUSH0 DUP2 SWAP1 POP SWAP3 SWAP2 POP POP JUMP JUMPDEST POP JUMP JUMPDEST PUSH0 PUSH2 0x1224 PUSH0 DUP4 PUSH2 0x120C JUMP JUMPDEST SWAP2 POP PUSH2 0x122F DUP3 PUSH2 0x1216 JUMP JUMPDEST PUSH0 DUP3 ADD SWAP1 POP SWAP2 SWAP1 POP JUMP JUMPDEST PUSH0 PUSH2 0x1243 DUP3 PUSH2 0x1219 JUMP JUMPDEST SWAP2 POP DUP2 SWAP1 POP SWAP2 SWAP1 POP JUMP JUMPDEST PUSH32 0x5072696365206D757374206265203E2030000000000000000000000000000000 PUSH0 DUP3 ADD MSTORE POP JUMP JUMPDEST PUSH0 PUSH2 0x1281 PUSH1 0x11 DUP4 PUSH2 0x10A3 JUMP JUMPDEST SWAP2 POP PUSH2 0x128C DUP3 PUSH2 0x124D JUMP JUMPDEST PUSH1 0x20 DUP3 ADD SWAP1 POP SWAP2 SWAP1 POP JUMP JUMPDEST PUSH0 PUSH1 0x20 DUP3 ADD SWAP1 POP DUP2 DUP2 SUB PUSH0 DUP4 ADD MSTORE PUSH2 0x12AE DUP2 PUSH2 0x1275 JUMP JUMPDEST SWAP1 POP SWAP2 SWAP1 POP JUMP JUMPDEST PUSH32 0x53746F636B206D757374206265203E2030000000000000000000000000000000 PUSH0 DUP3 ADD MSTORE POP JUMP JUMPDEST PUSH0 PUSH2 0x12E9 PUSH1 0x11 DUP4 PUSH2 0x10A3 JUMP JUMPDEST SWAP2 POP PUSH2 0x12F4 DUP3 PUSH2 0x12B5 JUMP JUMPDEST PUSH1 0x20 DUP3 ADD SWAP1 POP SWAP2 SWAP1 POP JUMP JUMPDEST PUSH0 PUSH1 0x20 DUP3 ADD SWAP1 POP DUP2 DUP2 SUB PUSH0 DUP4 ADD MSTORE PUSH2 0x1316 DUP2 PUSH2 0x12DD JUMP JUMPDEST SWAP1 POP SWAP2 SWAP1 POP JUMP JUMPDEST PUSH0 DUP2 MLOAD SWAP1 POP SWAP2 SWAP1 POP JUMP JUMPDEST PUSH32 0x4E487B7100000000000000000000000000000000000000000000000000000000 PUSH0 MSTORE PUSH1 0x22 PUSH1 0x4 MSTORE PUSH1 0x24 PUSH0 REVERT JUMPDEST PUSH0 PUSH1 0x2 DUP3 DIV SWAP1 POP PUSH1 0x1 DUP3 AND DUP1 PUSH2 0x136B JUMPI PUSH1 0x7F DUP3 AND SWAP2 POP JUMPDEST PUSH1 0x20 DUP3 LT DUP2 SUB PUSH2 0x137E JUMPI PUSH2 0x137D PUSH2 0x1327 JUMP JUMPDEST JUMPDEST POP SWAP2 SWAP1 POP JUMP JUMPDEST PUSH0 DUP2 SWAP1 POP DUP2 PUSH0 MSTORE PUSH1 0x20 PUSH0 KECCAK256 SWAP1 POP SWAP2 SWAP1 POP JUMP JUMPDEST PUSH0 PUSH1 0x20 PUSH1 0x1F DUP4 ADD DIV SWAP1 POP SWAP2 SWAP1 POP JUMP JUMPDEST PUSH0 DUP3 DUP3 SHL SWAP1 POP SWAP3 SWAP2 POP POP JUMP JUMPDEST PUSH0 PUSH1 0x8 DUP4 MUL PUSH2 0x13E0 PUSH32 0xFFFFFFFFFFFFFFFFFFFFFFFFFFFFFFFFFFFFFFFFFFFFFFFFFFFFFFFFFFFFFFFF DUP3 PUSH2 0x13A5 JUMP JUMPDEST PUSH2 0x13EA DUP7 DUP4 PUSH2 0x13A5 JUMP JUMPDEST SWAP6 POP DUP1 NOT DUP5 AND SWAP4 POP DUP1 DUP7 AND DUP5 OR SWAP3 POP POP POP SWAP4 SWAP3 POP POP POP JUMP JUMPDEST PUSH0 DUP2 SWAP1 POP SWAP2 SWAP1 POP JUMP JUMPDEST PUSH0 PUSH2 0x1425 PUSH2 0x1420 PUSH2 0x141B DUP5 PUSH2 0xE89 JUMP JUMPDEST PUSH2 0x1402 JUMP JUMPDEST PUSH2 0xE89 JUMP JUMPDEST SWAP1 POP SWAP2 SWAP1 POP JUMP JUMPDEST PUSH0 DUP2 SWAP1 POP SWAP2 SWAP1 POP JUMP JUMPDEST PUSH2 0x143E DUP4 PUSH2 0x140B JUMP JUMPDEST PUSH2 0x1452 PUSH2 0x144A DUP3 PUSH2 0x142C JUMP JUMPDEST DUP5 DUP5 SLOAD PUSH2 0x13B1 JUMP JUMPDEST DUP3 SSTORE POP POP POP POP JUMP JUMPDEST PUSH0 PUSH0 SWAP1 POP SWAP1 JUMP JUMPDEST PUSH2 0x1469 PUSH2 0x145A JUMP JUMPDEST PUSH2 0x1474 DUP2 DUP5 DUP5 PUSH2 0x1435 JUMP JUMPDEST POP POP POP JUMP JUMPDEST JUMPDEST DUP2 DUP2 LT ISZERO PUSH2 0x1497 JUMPI PUSH2 0x148C PUSH0 DUP3 PUSH2 0x1461 JUMP JUMPDEST PUSH1 0x1 DUP2 ADD SWAP1 POP PUSH2 0x147A JUMP JUMPDEST POP POP JUMP JUMPDEST PUSH1 0x1F DUP3 GT ISZERO PUSH2 0x14DC JUMPI PUSH2 0x14AD DUP2 PUSH2 0x1384 JUMP JUMPDEST PUSH2 0x14B6 DUP5 PUSH2 0x1396 JUMP JUMPDEST DUP2 ADD PUSH1 0x20 DUP6 LT ISZERO PUSH2 0x14C5 JUMPI DUP2 SWAP1 POP JUMPDEST PUSH2 0x14D9 PUSH2 0x14D1 DUP6 PUSH2 0x1396 JUMP JUMPDEST DUP4 ADD DUP3 PUSH2 0x1479 JUMP JUMPDEST POP POP JUMPDEST POP POP POP JUMP JUMPDEST PUSH0 DUP3 DUP3 SHR SWAP1 POP SWAP3 SWAP2 POP POP JUMP JUMPDEST PUSH0 PUSH2 0x14FC PUSH0 NOT DUP5 PUSH1 0x8 MUL PUSH2 0x14E1 JUMP JUMPDEST NOT DUP1 DUP4 AND SWAP2 POP POP SWAP3 SWAP2 POP POP JUMP JUMPDEST PUSH0 PUSH2 0x1514 DUP4 DUP4 PUSH2 0x14ED JUMP JUMPDEST SWAP2 POP DUP3 PUSH1 0x2 MUL DUP3 OR SWAP1 POP SWAP3 SWAP2 POP POP JUMP JUMPDEST PUSH2 0x152D DUP3 PUSH2 0x131D JUMP JUMPDEST PUSH8 0xFFFFFFFFFFFFFFFF DUP2 GT ISZERO PUSH2 0x1546 JUMPI PUSH2 0x1545 PUSH2 0xD0B JUMP JUMPDEST JUMPDEST PUSH2 0x1550 DUP3 SLOAD PUSH2 0x1354 JUMP JUMPDEST PUSH2 0x155B DUP3 DUP3 DUP6 PUSH2 0x149B JUMP JUMPDEST PUSH0 PUSH1 0x20 SWAP1 POP PUSH1 0x1F DUP4 GT PUSH1 0x1 DUP2 EQ PUSH2 0x158C JUMPI PUSH0 DUP5 ISZERO PUSH2 0x157A JUMPI DUP3 DUP8 ADD MLOAD SWAP1 POP JUMPDEST PUSH2 0x1584 DUP6 DUP3 PUSH2 0x1509 JUMP JUMPDEST DUP7 SSTORE POP PUSH2 0x15EB JUMP JUMPDEST PUSH1 0x1F NOT DUP5 AND PUSH2 0x159A DUP7 PUSH2 0x1384 JUMP JUMPDEST PUSH0 JUMPDEST DUP3 DUP2 LT ISZERO PUSH2 0x15C1 JUMPI DUP5 DUP10 ADD MLOAD DUP3 SSTORE PUSH1 0x1 DUP3 ADD SWAP2 POP PUSH1 0x20 DUP6 ADD SWAP5 POP PUSH1 0x20 DUP2 ADD SWAP1 POP PUSH2 0x159C JUMP JUMPDEST DUP7 DUP4 LT ISZERO PUSH2 0x15DE JUMPI DUP5 DUP10 ADD MLOAD PUSH2 0x15DA PUSH1 0x1F DUP10 AND DUP3 PUSH2 0x14ED JUMP JUMPDEST DUP4 SSTORE POP JUMPDEST PUSH1 0x1 PUSH1 0x2 DUP9 MUL ADD DUP9 SSTORE POP POP POP JUMPDEST POP POP POP POP POP POP JUMP INVALID LOG2 PUSH5 0x6970667358 0x22 SLT KECCAK256 CALLDATACOPY 0xA5 0xDC DUP2 SWAP7 BASEFEE 0xE3 CREATE2 RETURN XOR DUP16 PUSH17 0xAEDF2D56D4DEC98EF83EFA530094468815 0xE4 0xED SWAP4 PUSH5 0x736F6C6343 STOP ADDMOD SHR STOP CALLER "},"methodIdentifiers":{"buyProduct(string)":"364e022f","canReview(string,address)":"1f985cdc","getProduct(string)":"68111cce","hasPurchased(string,address)":"2dc6a5b8","isSeller(string,address)":"22fcc67c","listProduct(string,uint256,uint256)":"52292708","owner()":"8da5cb5b","updateStock(string,uint256)":"357360d0"}}}}}